S018000050776D427574746F6E73416E644144432E737265630E
S113000010C01FC01EC01DC01CC01BC01AC019C018
S113001018C017C016C032C014C013C012C011C01B
S113002010C011241FBECFE5D2E0DEBFCDBF20E05B
S1130030A0E6B0E001C01D92A836B207E1F795D062
S1130040B4C0DECF82E087B980E886B980E183B9A5
S11300500895369A3699FECF85B18093600008954D
S113006083E083BF81E089BF789408951ABA83E05E
S11300708BBB089581E088BB87BB08951F920F92C4
S11300800FB60F9211248F939F93C89906C081E0F5
S113009090E09093660080936500C99906C081E062
S11300A090E090936600809365009F918F910F90EC
S11300B00FBE0F901F9018953FB7F89425E0C8998C
S11300C00AC080916300909164000196909364004B
S11300D08093630018C0809163009091640004973A
S11300E074F08091670081608093670010926600CD
S11300F010926500109264001092630004C0109284
S1130100640010926300C9990AC0809161009091C3
S113011062000196909362008093610018C0809100
S1130120610090916200049774F08091670082608E
S1130130809367001092660010926500109262002E
S11301401092610004C0109262001092610021506C
S113015009F0B5CF3FBF0895BA9A83E880BF16BEB1
S113016082E083BF80E886BF08957ADF83DF7EDF85
S113017069DFF2DFC1E0809165009091660001972C
S113018009F49ADF8091670080FF03C018BA1092C7
S113019067008091670081FF03C0C8BB10926700AD
S11101A058DF8091600086BFE6CFF894FFCF51
S9030000FC
